:020000040800F2
:10000000B8060020910100086F18000825080008B4
:100010006D180008FD020008171A00080000000013
:10002000000000000000000000000000F1180008BF
:10003000FF0200080000000071180008F318000813
:10004000AB010008AB010008AB010008AB010008E0
:10005000AB010008AB010008AB010008AB010008D0
:10006000AB010008AB010008AB010008AB010008C0
:10007000AB010008AB010008AB010008AB010008B0
:10008000AB010008AB010008AB010008AB010008A0
:10009000AB010008AB010008AB010008AB01000890
:1000A000AB010008AB010008AB010008AB01000880
:1000B000AB010008AB010008AB010008AB01000870
:1000C000AB010008AB010008AB010008AB01000860
:1000D000AB010008AB010008AB010008AB01000850
:1000E000AB010008AB010008AB010008AB01000840
:1000F000AB01000800F002F800F03AF80AA090E81E
:10010000000C82448344AAF10107DA4501D100F0D2
:100110002FF8AFF2090EBAE80F0013F0010F18BF65
:10012000FB1A43F0010318476C1E00008C1E0000F0
:10013000103A24BF78C878C1FAD8520724BF30C813
:1001400030C144BF04680C607047000000230024E5
:1001500000250026103A28BF78C1FBD8520728BFD7
:1001600030C148BF0B6070471FB51FBD10B510BD33
:1001700000F058F81146FFF7F7FF01F05DFC00F0C2
:1001800076F803B4FFF7F2FF03BC00F07DF800003F
:100190000948804709480047FEE7FEE7FEE7FEE71B
:1001A000FEE7FEE7FEE7FEE7FEE7FEE70448054957
:1001B000054A064B70470000151A0008F5000008B4
:1001C000B8000020B8060020B8020020B8020020C5
:1001D0004FF0000200B5134694469646203922BFE0
:1001E000A0E80C50A0E80C50B1F12001BFF4F7AF2B
:1001F000090728BFA0E80C5048BF0CC05DF804EB0D
:10020000890028BF40F8042B08BF704748BF20F87A
:10021000022B11F0804F18BF00F8012B7047704778
:1002200070477047754600F02BF8AE4605006946EA
:10023000534620F00700854618B020B5FFF7B6FFFB
:10024000BDE820404FF000064FF000074FF00008D7
:100250004FF0000B21F00701AC46ACE8C009ACE858
:10026000C009ACE8C009ACE8C0098D46704710B5BC
:100270000446AFF300802046BDE81040FFF781BF81
:10028000004870475400002001491820ABBEFEE72B
:10029000260002007047000070B5144CA06840F0C2
:1002A0000100A0601248416841F400014160A0686B
:1002B00040F08040A0602068C0F34000002814D0C7
:1002C000A06D0C4D80B2688001F069FD02460B46BE
:1002D0000020094901F0DEFB0C2201F0F9FD01F0DC
:1002E00031FDA8806FF00200206070BD0024014045
:1002F000002701400000002000209340FEE77047E7
:1003000072B6FEE72DE9F04FDFF80C92002209F1FA
:10031000040A012503240AF1040B85B00F260BF112
:10032000040EF0E005FA02F71CEA07037ED091F80C
:1003300004C00CF0030CBCF1010F02D0BCF1020FA1
:1003400026D1D0F808C0CDF800C04FEA420C04FA1C
:100350000CF8CDF810C0DDF800C02CEA080CCDF880
:1003600000C0D1F80C80DDF810C008FA0CF8DDF8F8
:1003700000C048EA0C08C0F80880D0F804C02CEA95
:10038000070C0F79C7F30017974047EA0C0747603F
:100390000F79FF43BF070ED0C7684FEA420804FA3F
:1003A00008FC27EA0C07D1F808C00CFA08FC4CEA54
:1003B000070CC0F80CC00F7907F00307022F15D106
:1003C000D70800EB870702973F6A4FEA427C4FEA63
:1003D000DC6806FA08FC27EA0C07D1F810C00CFA12
:1003E00008FC4CEA070C029FC7F820C007684FEAD8
:1003F000420804FA08FC27EA0C0791F804C00CF044
:10040000030C0CFA08FC4CEA070CC0F800C04F685B
:1004100017F4403F76D0414FD7F800C04CF0010CA4
:10042000C7F800C03F6807F0010700E06AE00097E6
:100430003B4F22F0030C67440297BF684FEA827C6F
:100440004FEA1C7806FA08FC27EA0C07DFF8D4C04C
:10045000604502D14FF0000C1DE0DFF8CCC06045D4
:1004600002D14FF0010C16E0DFF8C0C0604502D1A8
:100470004FF0020C0FE0DFF8B8C0604502D14FF03A
:10048000030C08E0DFF8ACC0604502D14FF0040C6B
:1004900001E04FF0050C0CFA08FC4CEA070C029F37
:1004A000C7F808C0D9F80070CC46D1F804809F4343
:1004B0005FEAC83800D51F43CCF80070DAF8007046
:1004C000D446D1F804809F435FEA883800D51F43A3
:1004D000CCF80070DBF80070DC46D1F804809F4354
:1004E0005FEAC82800D51F43CCF80070DEF8007022
:1004F000F446D1F804809F435FEA882800D51F4363
:10050000CCF80070521C0B689C46D3407FF40AAFB5
:1005100005B0BDE8F08F0000000401402038024023
:1005200000000140000002400004024000080240B8
:10053000000C024000100240014880687047000033
:1005400008000020024881684268114481607047B9
:100550000800002010B50024032000F03DF9002021
:1005600000F008F808B1012401E000F0F7F8204697
:1005700010BD000070B5104905460A2008604FF410
:100580007A71B1FBF0F00D4900240968B1FBF0F07D
:1005900000F034F960B9102D0AD200222946501E0D
:1005A00000F0FAF80648074905600120087000E0ED
:1005B0000124204670BD00000C0000201400002023
:1005C00008000020000000202DE9F04104004FF059
:1005D000000504D094F83500002618B107E001208A
:1005E000BDE8F08184F83460204600F06DF8022008
:1005F00084F835002068016821F0010101601420B1
:10060000216800EB85028E506D1CEDB20F2DF7D9DD
:100610002068816841F004018160D4E90101084348
:10062000D4E90A1211430843E1690843216A0843E7
:10063000A1690843616A084321684A68214B1A404E
:1006400010434860204600F0EEF8D4E90301084367
:10065000226B61691143084321680A6822F0FE0297
:10066000104308602068016841F001010160FFF754
:1006700063FF05464FF47A7707E000BFFFF75CFFA2
:10068000401BB84201D908200EE020688068C043B2
:10069000C007F3D1FFF750FF054608E0FFF74CFF16
:1006A000401BB84203D91020A063032098E72068BC
:1006B0008068C043C006F1D4A663012084F83500E9
:1006C00000208DE70F0000FC70B586B004461421B1
:1006D0006846FFF77DFD1D492068884233D11C48DC
:1006E000016841F400710160006800F40070059039
:1006F00017480838016841F001010160016801F004
:1007000001010591016841F00201016000680225C4
:1007100000F00200059048F2CE7000900024CDE970
:1007200001540B26CDE9034669460A48FFF7EAFD66
:1007300047F21B000090CDE90154CDE9034669461C
:100740000548FFF7DFFD06B070BD00000024004043
:100750002438024000000240000402400D4808B561
:10076000016841F000410160016801F00041009121
:10077000011F0A6842F001020A60096801F00101E4
:100780000091016841F080510160006800F08050E4
:10079000009008BD24380240F0B40E4B1B680C4694
:1007A000C3F30223C3F10705042D00D90425191D45
:1007B000072901D2002300E0DB1E012606FA05F11D
:1007C000491E214099409E40761E16403143F0BCA0
:1007D00001F022B90CED00E0064900F007020868BC
:1007E0004FF6FF03184040EA0220034A1043086016
:1007F000704700000CED00E00000FA0510B5401E47
:10080000B0F1807F01D3012010BD4FF0E024606182
:100810000F21601701F000F90020A061072020617E
:10082000002010BDFEE770B50446FFF785FE0546C3
:100830004FF47A7608E0FFF77FFE401BB04203D901
:100840000120A063032070BD20688068C04380063B
:10085000F1D4002070BD0000074B024600209B68C9
:1008600013F0010F01D0012070470968536823F489
:1008700040330B43536070470024014030B5836818
:10088000002213F0010F02D00122104630BDCC68C7
:100890000B6823434468094D2C408D6805F44035AE
:1008A0002C432343436083680C7A23F4076304F0EA
:1008B0007004496823430B438360E6E7FFFEFCFCBA
:1008C00030B54A688468002314F0010F02D0012378
:1008D000184630BD32B18C682243446824F4684421
:1008E000224302E0426822F468424260D1E90324D4
:1008F00022438468074D2C400D6805F070652C4339
:10090000224382604968026B22F0F8720A43026354
:10091000DEE70000FDFCFFC0044908B50A68024399
:100920000A6009680140009108BD00001C380240BF
:10093000044908B50A6802430A6009680140009149
:1009400008BD00001C38024070B5002401F0100101
:100950000123556806688B40B3430ED07DB1136800
:100960002B43D2E9025215432B4302688B4040F6D9
:10097000FA758D40AA4313430AE0012409E0036895
:10098000FA258D40AB431568D26815438D402B4343
:100990000360204670BD000030B5264A002405796A
:1009A0000168131F85B371B345798DB1012D17D03F
:1009B000022D18D0012483792BB31E4908310A1F58
:1009C000012B18D0022B20D0032B22D0012428E0A9
:1009D00015688D43156001681A680A431A60EAE7D2
:1009E0001D688D4301E01D680D431D60016813689B
:1009F0000B431360DFE703680D689D430D600068DB
:100A00001168014311600CE00DE0036815689D4317
:100A100002E0036815681D43156000680A68024318
:100A20000A60204630BD1D688D431D600068116856
:100A30008143E7E704040140F0B50A680F2692FA03
:100A4000A2F2B2FA82F303248AE001279F4015EA5A
:100A500007027DD04D68012D01D0022D1BD18D687C
:100A6000876892FAA2FCBCFA8CFC4FEA4C0C04FAA0
:100A70000CFC27EA0C0792FAA2FCBCFA8CFC4FEAA9
:100A80004C0C05FA0CF52F438760CD684768554339
:100A900097432F4347600F69D0F80CC092FAA2F534
:100AA000B5FA85F54FEA450E04FA0EF52CEA050C69
:100AB00092FAA2F5B5FA85F56D00AF404CEA070C45
:100AC000C0F80CC04D68022D33D192FAA2F5B5FAE8
:100AD00085F5082D15D2D1F814C0056A92FAA2F74F
:100AE000B7FA87F7BF0006FA07F7BD4392FAA2F7F5
:100AF000B7FA87F7BF000CFA07FC45EA0C05056258
:100B000017E0D1F814E0476A150A95FAA5FCBCFA7B
:100B10008CFC4FEA8C0C06FA0CFC95FAA5F5B5FA9C
:100B200085F5AD0027EA0C070EFA05FE47EA0E0729
:100B300047624D68076892FAA2FCBCFA8CFC4FEA47
:100B40004C0C04FA0CFE27EA0E0792FAA2F200E01F
:100B500005E0B2FA82F2520095402F4307605B1C19
:100B60000A681546DA407FF470AF0020F0BD00003F
:100B700030B5214C4568B1FBF4F425F03F05254321
:100B800045601E4DAA4207D94FF4967504FB05F443
:100B90004FF47A75B4FBF5F4056A04F1010425F00D
:100BA0003F0544EA0504046213D96BB102EBC204A9
:100BB00004EB0212B1FBF2F4240508D0B1FBF2F110
:100BC000194341F400410FE002EB4202F2E7012138
:100BD000F6E75200B1FBF2F3C3F30B03042B01D28F
:100BE000042101E0B1FBF2F1C2694CF6FF739A43B4
:100BF0000A43C26130BD000040420F00A0860100E0
:100C00007FB5044600680D4620F00100206068466C
:100C100000F022F8D5E9012320460299FFF7A8FF4A
:100C20006969E868A26848F2FF339A4308430243BF
:100C3000A2602868216821F01A0101432160206820
:100C400040F0010020602869216821F4806101439F
:100C5000216004B0002070BD10B5044600F00AFE0B
:100C60000E4920600A680E4B02F0F00212099A5CED
:100C7000D04060600A6802F4E0630A4A02EB132382
:100C80001B7820FA03F3A360096801F4605102EBBA
:100C9000D1210978C840E06010BD0000083802404A
:100CA0007A1F00088A1F000810B5D2B241EA02413B
:100CB000DAB2029C41EA0221E2B21143C269024B5C
:100CC0001A400A43C26110BD808080FFF8B5044617
:100CD0001546A268002012F0400F00D12860CA20FB
:100CE000606253206062EA680A20002AE2690FD03D
:100CF00042F08042E2612A7CE36923F0706343EAB8
:100D00000262E261F9B1A87900906B792A7939E041
:100D100022F08042E26139B1287CE16921F07C5106
:100D200041EA0060E061EEE7297CB1FBF0F200FBF4
:100D30001212B1FBF0F142EA0111E26922F07C5299
:100D400042EA0161E161A979B1FBF0F200FB121204
:100D5000B1FBF0F142EA01116A79C9B2B2FBF0F3DA
:100D600000FB1323B2FBF0F243EA0212D3B22A795A
:100D70000091B2FBF0F600FB1626B2FBF0F046EA5B
:100D80000010C2B220462968FFF78EFFA868E1690B
:100D900001F07F310143E161FF2060620020F8BD76
:100DA00010B54903029CDBB2E4B241EA044141EAD6
:100DB0000321D2B211434268024B1A400A434260F7
:100DC00010BD0000C00000FFF8B514460F00054636
:100DD0004FF0010606D16078C10603D500F0EF00A0
:100DE0000A306070CA20686253206862284600F0AA
:100DF0003DF8012831D027B1E07800906378A278DF
:100E00001FE0E1780A20B1FBF0F200FB1212B1FB07
:100E1000F0F142EA01116278C9B2B2FBF0F300FBD3
:100E20001323B2FBF0F243EA0212D3B2A27800918C
:100E3000B2FBF0F600FB1626B2FBF0F046EA00101B
:100E4000C2B221782846FFF7ABFF6FF08000E86060
:100E5000A868C0F3401020B10026FF206862304629
:100E6000F8BD284600F0AFF80646F6E718B54FF48F
:100E70007A710091C1680022C1F38011A9B9511E95
:100E8000C160C1684FF0E023C1F380110BE0196924
:100E9000C1F3004111B10099491E0091C168009C45
:100EA000C1F380111CB10029F1D0104618BD0122F8
:100EB000FBE770B504460126CA200D466062532048
:100EC00060622046FFF7D2FF012816D02868A1688B
:100ED00021F040010143A160A86821696FF30E0170
:100EE00001432161A888216921F4FE0141EA004003
:100EF00020616FF08000E0600026FF2060623046D5
:100F000070BD000010B5D2B241EA0241DAB2029CD3
:100F100041EA0221E2B211430268024B1A400A433D
:100F2000026010BD808080FFF8B505460F4601269F
:100F3000A9681446002011F0400F00D12060CA209B
:100F40006862532068622846FFF790FF012831D07D
:100F500027B1A0790090637922791FE0A1790A2056
:100F6000B1FBF0F200FB1212B1FBF0F142EA011109
:100F70006279C9B2B2FBF0F300FB1323B2FBF0F2CB
:100F800043EA0212D3B222790091B2FBF0F600FBE1
:100F90001626B2FBF0F046EA0010C2B228462168DD
:100FA000FFF7B0FF6FF08000E860A868C0F3401062
:100FB00020B10026FF2068623046F8BD284600F0C8
:100FC00002F80646F6E718B54FF47A710091C16849
:100FD000002201F0800161F0A001C160C1684FF002
:100FE000E023C1F340110BE01969C1F3004111B1D5
:100FF0000099491E0091C168009CC1F340111CB1C9
:101000000029F1D0104618BD0122FBE70149086014
:10101000704700001400002070B502684FF0804552
:10102000144B154CA84203D0984201D0A04205D1E0
:101030004E6822F070023243A8420CD098420AD087
:10104000A04208D00D4B984205D00D4B984202D0DB
:101050000C4B984203D1CB6822F440721A430260D1
:101060008A68C26209888162416941F00101416177
:10107000002070BD0004004000080040000801404E
:10108000000C0140001001407FB50446C0680D46C9
:101090000126C0F3403078BBE9686868AA69084354
:1010A000296911430843E16849F20C6291430843FE
:1010B000E060A868216921F4405101432161686919
:1010C000616921F44071014361616846FFF7C4FD25
:1010D0000B48844201D1039906E00A48844202D0B9
:1010E0000948844208D1029931B12B6823B1002606
:1010F0002046AA6900F00AF804B0304670BD00002E
:10110000003801400044004000480040F0B564242D
:10111000322501EBC10606EB0111B2F5004F2AD0D2
:101120009A00B1FBF2F3B3FBF4F3B1FBF2F66FF00C
:1011300018077B4306EB8303B1FBF2F605EB0313C1
:10114000B3FBF4F3B6FBF4F603F0F00303EB061382
:10115000B1FBF2F6B1FBF2F1B1FBF4F1794306EB2E
:10116000810105EB0111B1FBF4F101F00F0119440C
:1011700089B28160F0BD5A00B1FBF2F6B6FBF4F61D
:10118000B1FBF2F7B1FBF2F36FF0180C06FB0CF6B3
:1011900007EB860605EBC606B3FBF4F3B6FBF4F6E5
:1011A0001B0106F0F80603EB4603B1FBF2F6B1FBB8
:1011B000F2F1B1FBF4F101FB0CF106EB810105EB5F
:1011C000C101B1FBF4F101F00701D0E708B54FF020
:1011D000E0210A690092421C00D0401C0A69D20337
:1011E00000D5401E0028F9D108BD0000F0B591B02F
:1011F00000240F940B940C940D94142106A80E94C3
:10120000FEF7E6FF18216846FEF7E2FF3A4801685C
:1012100041F400710160006800F40070109001203A
:10122000FFF786FB0220FFF783FB20200325CDE993
:101230000005694604943148FFF7FEFB4FF4004077
:10124000CDE90005694604942D48FFF7F5FB2D4EC6
:101250000FA930460F94FFF7FFFA2B4D0B940C9417
:101260000D940BA928460E94FFF708FB06940794EB
:10127000A8150894CDE9094006A92846FFF720FBE8
:10128000A86820F48060A8604FF4E06191FAA1F1B1
:101290002815B1FA81F1C84005EB80004FF0F872D3
:1012A000016B072721F01F0141F0110101634FF08D
:1012B000C06191FAA1F14FF00070B1FA81F1C8401C
:1012C00005EB800192FAA2F54FF0A870B5FA85F50A
:1012D00020FA05F5AF4092FAA2F2CB68B2FA82F298
:1012E000D040BB4384402343CB60706840F400008F
:1012F000706011B0F0BD00002038024000000240D4
:1013000000040240002701400024014010B58CB0C9
:101310000024069407940894182168460994FEF75F
:1013200057FF1348016841F000510160006800F068
:1013300000500A900E480838016841F00101016030
:101340000068694600F001000A9010200090032018
:10135000019004940748FFF76FFB3820CDE906049D
:1013600006AA054905480994FFF7EEFA0CB010BD2E
:1013700024380240000002400100100200740040C6
:101380002DE9F04188B0002406941821684607949E
:10139000FEF71EFF0420FFF7BFFA2020FFF7BCFA7C
:1013A0000120FFF7B9FA0220FFF7B6FA3E4D4FF4DD
:1013B0000030A861DFF8F48087118102C8F81810A6
:1013C0003B4905208A680F2393FAA3F3B3FA83F30A
:1013D00022F00F02984002438A60EA68012191FAE4
:1013E000A1F0B0FA80F04300032000FA03F391FA71
:1013F000A1F1B1FA81F149009A4304FA01F10A43DB
:10140000EA602A68012191FAA1F3B3FA83F35B0041
:101410009840824391FAA1F0B0FA80F0400004FABB
:1014200000F002432A608DF81C108DF81D400E4616
:1014300006918DF81E1006A8FFF7AEFA0220009064
:10144000CDE901640394694628460494FFF7F4FA51
:101450000420CDE90004174D694628460494FFF79F
:10146000EBFA2815CDE90004694628460494FFF7F5
:10147000E3FACDE90074694628460494FFF7DCFAE4
:101480000097CDE901640394694640460494FFF750
:10149000D3FA2020CDE90004694628460494FFF7DA
:1014A000CBFA08B0BDE8F081001402400000024011
:1014B00000000140000402402DE9F0418EB01821E7
:1014C00006A8FEF785FE18216846FEF781FE29482A
:1014D000016841F0020101600068022500F002008D
:1014E0000C904FF480700124CDE9000503260427F9
:1014F000CDE90264DFF88080CDE9044769464046C3
:10150000FFF79AFA6002CDE90005CDE90264CDE962
:10151000044769464046FFF78FFA164808300168CD
:1015200041F4001101600068144C00F400100C90AC
:10153000206820F080002060E06820F0FE00E0607D
:1015400000200F490890CDE90601099020150A9066
:1015500000010B9006A92046FFF752FBE06820F03F
:101560000100E060206820F0400020600EB0BDE87F
:10157000F08100001C38024000040240005400408A
:10158000801A06000E4810B50C490160002108229F
:101590004160C0E902120222C0E904128161C16106
:1015A000016201638162C162FFF70EF8002803D077
:1015B000BDE81040FEF7A4BE10BD000000240040AE
:1015C000180000202DE9F04192B000240B940C94F7
:1015D0000D940E940F94142106A81094FEF7F8FDB4
:1015E00018216846FEF7F4FD3148016841F4800196
:1015F00001602F481838016841F00401016000685B
:10160000694600F0040011904FF400500090022051
:10161000CDE901040394049426480594FFF70CFADD
:101620007F20CDE90B40FF20234E0D900BA93046C3
:10163000FFF73FFC204D5035286843F2F2274FF06A
:101640000108B84218D08DF83C408DF83D408DF827
:101650003E400EAA01213046FFF766FC8DF840801F
:101660008DF841808DF842808DF8434010AA012109
:101670003046FFF7A9FB2F602868B84200D02F60E2
:101680008DF81C408DF81D408DF81E40089409947B
:101690008DF8288006AA01213046FFF717FBB068B5
:1016A00020F4080040F40000B06012B0BDE8F08102
:1016B00034380240000802400028004070B58EB067
:1016C0000024089409940A94182102A80B94FEF7A8
:1016D0007FFD3248016841F001010160006800F0BF
:1016E000010000902D480838016841F001010160B7
:1016F000006802A900F0010000904FF480500290B1
:101700000220CDE903040E20CDE906402448FFF76E
:1017100093F9ADF820404FF6FF70CDE909404FF046
:10172000804508A928460B94FFF776FC286820F02E
:1017300080002860686820F070006860A86820F069
:101740008000A8601748017801F1804118310A68CB
:10175000C01D03230678B3409A430123B3401A43C4
:101760000A600B6806780C22B240934304FA06F232
:1017700013430B600B680678F020B040834313439B
:101780000B60286A07490A220E310B789A40D9B2B9
:1017900090438C40204328620EB070BD2438024034
:1017A000000002405C1F00082DE9F0418EB01C21B2
:1017B00006A8FEF70DFD18216846FEF709FD28482A
:1017C000016841F480410160006800F480400D90A0
:1017D0002348001F016841F00201016000680225F2
:1017E00000F002000D9040200024CDE90005032602
:1017F0000727CDE90264DFF86C80CDE9044769462C
:101800004046FFF719F98020CDE90005CDE90264D3
:10181000CDE9044769464046FFF70EF94FF4E13041
:10182000CDE906040C200894CDE909400B940C94F2
:101830000D4C06A92046FFF727FC606920F4806064
:101840006061206920F490402061606920F02A00E6
:101850006061E06840F40050E0600EB0BDE8F081E7
:10186000203802400004024000380140FEE7FEE755
:101870007047000070B51A490868A1F1040510F01E
:101880000C064FF001044FF4004207D01548042E17
:101890000BD0154B082E09D00C2E09D0286800F467
:1018A000604004EB503002FA00F070BD184670BD85
:1018B0000A6812F4803203D0B2F5803F00D1184696
:1018C0000A680A4B02F4701203EB92421278424308
:1018D000086800F4400004EB9050B2FBF0F070BDDB
:1018E000083802400024F40000366E01711F000821
:1018F0007047FEF727BE0000424810B5016841F06E
:1019000004010160016841F001010160016811F00A
:10191000010FFBD03C48016821F4C05141F4006143
:1019200001603A490A6842F001020A600A68C2F39B
:101930004002002AFAD0354A121D136823F4F853E6
:1019400043F480531360026842F4807202602F48AF
:101950003430026802F440334FF48032934207D0AF
:10196000036843F400030360036823F40003036087
:10197000036843F4807303600368C3F34023002BC0
:10198000FAD0036803F44033934205D0026822F48E
:10199000403242F480320260026842F48002026007
:1019A0001A480830026822F47D0242F408020260FC
:1019B0000A6842F080720A600A68C2F34062002A34
:1019C000FAD0016821F0F0010160016821F4E061C2
:1019D0000160016821F460510160016841F0030178
:1019E0000160016801F00C010C29FAD10848FFF7E9
:1019F0000DFB0020FEF7BEFD002801D072B6FEE709
:101A000010BD0000003C0240007000400038024061
:101A10000048E8017047FEE70907090E002804DBCB
:101A200000F1E02080F80014704700F00F0000F192
:101A3000E02080F8141D7047FEF78CFDFFF75CFF77
:101A4000FFF79EFCFFF7D2FBFFF760FCFFF734FDCA
:101A5000FFF798FDFFF7A8FEFFF7B4FDFFF72EFE96
:101A6000074C00BFFEF718FC61690220884301F0B3
:101A7000020140EA0140A0610A20FFF7A7FBF1E75D
:101A80000014024002494FF0000000F0EFB900BF1F
:101A90000000F87F2DE9C04130B4DFF8A0C23CEA75
:101AA000111418BF3CEA131400F0EC8081EA03051E
:101AB0001CEA111444EAD57418BF1CEA131500F08F
:101AC000C780A4EB05044FF0004545EAC12145EA73
:101AD000C32341EA505143EA525304F17F749942BF
:101AE00004F500344FEAC0204FEAC22208BF9042FA
:101AF00000F09C804FEA13650FF24016765D4FEAC6
:101B0000134506FB05F7C7F1807706FB07F74FEA99
:101B1000D737A7FB03687642C8F58038A7FB06CE07
:101B200038BFA8F1010807FB08E64FF0000EA6FB3E
:101B3000028CE6FB03CEDCF1000CCEF1004E38BF88
:101B4000AEF1010EA6FB0C584FF000074FF0000558
:101B5000E6FB0E87A1FB08C6A0FB07CE16EB0E0620
:101B600045F10005E1FB076515F1E04E7EBFA4F5E8
:101B700080345FEA46066D4116F1800745F10005A5
:101B80004FEA17274FEA066647EA0567A6F1DE46E1
:101B9000B6F1805F4FEA15251FD9384624F0010CB5
:101BA00005EBC471BCF1FE6F01EB0C1102D8F0BC67
:101BB000BDE8008124425CBF01F5801E9EEAC47F1F
:101BC00002D4F0BCBDE80081244238D4F0BCA1F1BD
:101BD000C041BDE8004100F043B94FEAD22242EAD9
:101BE00043524FEAD323A7FB02864FEAD02040EAB4
:101BF000415007FB03661EEA0E0F4FEAD12105FB99
:101C0000026658BFA6EB0056B6EB00564FEA520EDE
:101C10004EEAC37E18EB0E0E56EB530EBDD518EBF5
:101C200002085E417F1C55F10005B6E74FF48015B0
:101C30004FF000074FF000064FF00008ADE7F0BC92
:101C40004FF0000001F1C04101F00041BDE800810A
:101C500011EA0C1F0CEA131500D00CE013EA0C1F5C
:101C600000F025804FF00000F0BC81EA030101F094
:101C70000041BDE80081F0BCBDE8004181EA0301FC
:101C800000F0EEB8F0BCBDE8004170B500F09AF885
:101C9000097EFC3E00F007B881EA03014FF0000026
:101CA00001F00041704781EA030100F0D9B8F0BCAF
:101CB000BDE800414FF0000021497047FFFDFBF9EE
:101CC000F7F5F4F2F0EEEDEBE9E8E6E4E3E1E0DE6F
:101CD000DDDBDAD8D7D5D4D3D1D0CFCDCCCBCAC8E1
:101CE000C7C6C5C4C2C1C0BFBEBDBCBBBAB9B8B708
:101CF000B6B5B4B3B2B1B0AFAEADACABAAA9A8A8FB
:101D0000A7A6A5A4A3A3A2A1A09F9F9E9D9C9C9BC8
:101D10009A99999897979695959493939291919073
:101D20008F8F8E8E8D8C8C8B8B8A89898888878704
:101D30008685858484838382828181800000FF0779
:101D40000000F87F4FEA1153A3F58063D3F11E031F
:101D5000A8BFD3F1200C08DB4FF0004242EAC122B9
:101D600052EA505232FA03F0704709420BD4102B5A
:101D7000C4BF0020704703F5787CBCF1FF3F05D05D
:101D80004FF0FF3070474FF00000704770B500F023
:101D900019F800BF4992248000207047F0E7B0FA9C
:101DA00080F310FA03F10AD0C3F11D0303F5806339
:101DB0004FEA41504FEA035202EBD12170474FF0F6
:101DC000000070470EF1020E2EF0030E5EF8046B59
:101DD000364205D4012A43EB030515F5001F12D83E
:101DE000012841EB010C1CF5001F0CD80ED14FEA65
:101DF000D17C15F5001F0CEB4C0C0CF1020C08BF4C
:101E00004CEBD37C04E04FF0080C01E04FEAD37CAC
:101E10000CEB4C0526FA05F606F00706B6F1040CA5
:101E200006D20EEB860CBDE870404CF0010C60470A
:101E3000DFE80CF0090B02024FF000414FF0000008
:101E4000A1F5002170BD19461046012851EB01048F
:101E500018BFD4F5001484BF002001F0004170BD0C
:101E60000808A0F500114FEA310170470CF00F038C
:101E7000092B08BF082000F059800A2B0BD0082B33
:101E800018BF704708BF1CF0400F0AD04FF0000089
:101E90004FF0000170471CF0400F18BF4FF000409A
:101EA00070471CF0100F08D020F0704300F07F4204
:101EB00042EAD3014FEA4370704700F0604021F0DE
:101EC0007F4242EA000201F07F4040EA72707047B0
:101ED0004FF0FF0C4CF4E06C1CEA11531CBF9CEA61
:101EE000030C9445C2BFDA4201EB02517047002B4C
:101EF0000DD0BCF1000F0FD0002A01F00041A4BFAB
:101F000041F0E04141F07F614FF00000704701F087
:101F100000414FF00000704750EA01334FF09B0C36
:101F200018BF4CF0806C7FF4ADAD70471CF4801F7F
:101F300011D01CF4E02F03D06FEACC314900704778
:101F40004FF04050EFF3008222F0704242EA00026C
:101F500082F3008870474FF00000704700000000D7
:101F6000040004000008000000080000040008004D
:101F70000C030406080C10182030000000000000BC
:101F80000000010203040607080900000000010226
:101F900003040000B41F0008000000201800000027
:101FA00030010008CC1F000818000020A006000027
:101FB0004C010008000000000000000010000000BC
:0C1FC000010000000000000068FF1F008E
:04000005080000F5FA
:00000001FF
